:020000040800F2
:1000000000240020010200082D2B00089322000884
:10001000292B00088B1A0008B337000800000000E5
:100020000000000000000000000000006532000831
:10003000D91B000800000000592C0008A933000853
:100040001B0200081B0200081B020008292F0008E1
:100050001B0200081B0200081B0200081B0200080C
:100060001B0200081B0200081B0200081B020008FC
:100070001B0200081B0200081B0200081B020008EC
:100080001B0200081B0200081B0200081B020008DC
:100090001B0200081B0200081B0200081B020008CC
:1000A0001B0200081B0200081B0200081B020008BC
:1000B0000D3400081B0200081B0200081B02000888
:1000C0001B0200081B0200081B0200081B0200089C
:1000D0001B020008913500081B0200081B020008E3
:1000E0001B0200081B0200081B02000800F002F8B7
:1000F00000F077F80AA090E8000C82448344AAF14B
:100100000107DA4501D100F06CF8AFF2090EBAE848
:100110000F0013F0010F18BFFB1A43F0010318473B
:10012000049A0000249A000010F8013B0A4413F0DE
:10013000030408BF10F8014B1D1108BF10F8015B44
:10014000641E05D010F8016B641E01F8016BF9D133
:10015000002D15D010F8014B03F00C030C2BA1EB74
:1001600004040ABF10F8013BA4EB8314A4EB03249E
:1001700005F1010314F8016B5B1E01F8016BF9D561
:10018000914238BF10F8013BD1D3704700230024BF
:1001900000250026103A28BF78C1FBD8520728BF97
:1001A00030C148BF0B607047662908F0CC806429D5
:1001B00000F0D680752900F0D380632900F05985BE
:1001C000732900F05E85002070471FB500F0C4FD64
:1001D00004000020002107F0A1F9E0601FBD10B568
:1001E00010BD00F0E1FE1146FFF7EFFF04F0A4F9A7
:1001F00000F0FFFE03B4FFF7F2FF03BC03F079FB4E
:100200000948804709480047FEE7FEE7FEE7FEE7AA
:10021000FEE7FEE7FEE7FEE7FEE7FEE704480549E6
:10022000054A064B70470000AD330008ED0000089A
:10023000001E0020002400200020002000200020BC
:10024000704700000FB4044910B503AA029800F0EB
:100250001DFD10BC5DF814FB4C0000200FB41CB554
:10026000084B06AA7B4469460090059800F0D7FC2D
:1002700004460020694600F0E5FC20461CBC5DF801
:1002800014FB0000DD0900000FB47CB50C0009AAC6
:10029000009001D02044401E084B7B4469460190E9
:1002A000089800F0BCFC05461CB10020694600F02F
:1002B000C9FC28467CBC5DF814FB0000B1090000B5
:1002C00070B5044685690068C10601D5302600E096
:1002D0002026C00707D070BDD4E9012130469047E1
:1002E000206A401C20626D1EF6D570BD70B50446B4
:1002F00085690078C00707D170BDD4E901212020AD
:100300009047206A401C20626D1EF6D570BD70B506
:100310000C460546012A05D02878800600D5EA69F2
:10032000002302E0012305E05B1C934202D2E05C63
:100330000028F9D1A869E618C01AA861286A1844EB
:1003400028622846FFF7BCFF04E0D5E9012114F834
:10035000010B9047B442F8D32846FFF7C7FF70BDA2
:100360002DE9F0410646002410687529314616A58E
:1003700010D0AFF30080002802DA404213A507E056
:1003800031688A0701D512A502E0490704D511A5F5
:10039000012401E0AFF3008000210A2206F12407C6
:1003A00009E0B0FBF2FCB0FBF2F302FB1C003030C2
:1003B00078541846491C0028F3D123462A46304673
:1003C000BDE8F04100F0C0B9000000002D000000C1
:1003D0002B000000200000002DE9F0474FF0000A3C
:1003E00089460446C0F820A02046E16888470028D6
:1003F00076D0252806D0D4E901219047206A401CF8
:100400002062F1E7E168204600258847C4F81CA077
:1004100006460027C4F818A02A2E09D0304603F05B
:1004200061FA38B304EB8708303EC8F8186019E069
:1004300059F8041B204604EB87029161E168884764
:10044000012F064618D1E069002820DA25F02005A2
:100450001DE0D8F8180000EB800006EB40003038B3
:10046000C8F818002046E1688847064603F03AFAC3
:100470000028EED1012F0AD02E2E08D12046E168A7
:1004800088477F1C0646022F45F02005C4DBA06983
:10049000002803DA404245F00105A061E80701D0D9
:1004A00025F01005B6B1A6F14100192802D8203672
:1004B00045F400654A463146204625604D46FFF723
:1004C00073FE58B1012806D0ED1D25F0070000F19C
:1004D000080989E704E005F1040985E730468AE761
:1004E000206ABDE8F087401ECAB210F8011F8A4298
:1004F00002D00029F9D10020704730B505460B46DF
:100500002A4613F8014B12F8010B08B1A042F8D0AB
:100510001CB1002802D06D1CF1E7284630BD40EA2E
:100520000103024630B59B0710D14FF0013400E0C3
:1005300008C208C91D1B9D4315EAC41FF8D013F05B
:10054000FF0102F8011B0DD01B0AF8E711F8013B6F
:10055000002B02F8013B05D011F8013B002B02F8FB
:10056000013BF3D130BD0022CBB210F8011B994200
:1005700000D1421E0029F8D11046704710B5431C27
:1005800002E010F8011B71B18107FAD14FF001327E
:1005900002C88C1A8C4314EAC211F9D0C01A0A0698
:1005A00003D0C01E10BDC01A10BD0A0401D0801EA9
:1005B00010BD0902FCD0401E10BD40EA010370B519
:1005C0009B072ED14FF00136042A2AD308C810C940
:1005D0009D1B9D43121F15EAC61517D0D8B2E1B274
:1005E000401A50EA056110D198B2A1B2401A50EAFF
:1005F00005410AD123F07F4024F07F41401A50EAA0
:10060000052102D1180EA0EB146070BDA342DBD00F
:1006100018BA21BA884201D9012070BD4FF0FF30CD
:1006200070BD0AB9002070BD10F8013B11F8014BF4
:1006300063B1A3420AD1521E08D010F8013B11F851
:10064000014B1BB1A34201D1521EEDD1181B70BD4D
:10065000032A40F2308010F0030C00F0158011F8EE
:10066000013BBCF1020F624498BF11F801CB00F8C6
:10067000013B38BF11F8013BA2F1040298BF00F81A
:1006800001CB38BF00F8013B11F0030300F01083E9
:10069000083AC0F0088051F8043B083A51F804CBFE
:1006A000A0E80810F5E7121D5CBF51F8043B40F8C4
:1006B000043BAFF30080D20724BF11F8013B11F8CF
:1006C00001CB48BF11F8012B24BF00F8013B00F813
:1006D00001CB48BF00F8012B704702F0FF0343EA4B
:1006E000032242EA024200F017BB10B5044610F0A4
:1006F000030F08BF11F0030F40F015804FF0013ECB
:10070000121FC0F20E8051F8043BA3EB0E0C2CEA32
:10071000030C1CEACE1C08BF40F8043BF0D0A1F14A
:10072000040102F10402521E08DB11F8013B002B08
:1007300000F8013BF7D1114600F0ECFA204610BD5D
:1007400070477047704770472DE9F0470D4699464E
:100750009246044600F124080168880604D5E06941
:1007600021F01001216000E00120A84201DD471BBB
:1007700000E00027A1697A1902EB0900081AA061BC
:100780002078C00602D42046FFF79AFD002608E034
:10079000D4E901211AF806009047206A401C761C13
:1007A00020624E45F4DB2078C0060AD52046FFF7CC
:1007B00087FD06E0D4E9012130209047206A401CE3
:1007C0002062381EA7F10107F4DC07E0D4E901211B
:1007D00018F805009047206A401C2062281EA5F1E9
:1007E0000105F3DC2046FFF781FD2078000602D5E5
:1007F0000220BDE8F0870120FBE770472DE9FF4F9D
:100800000C461E464FF0FF378BB0D2E90001DDF8F1
:1008100060800A908A46C1F30A5505B93D46002119
:1008200008464FF00000BAF1000F00F4400005DA6E
:1008300000EB80004FF4400101EA50004FEA90596C
:10084000B9F1010F00DDB9460A9850EA4A000ED00E
:1008500044F61050A5F2FF3545432F14B8F1000FB0
:100860001ED07542291E1EDDC9F100021CE0B8F140
:10087000010F4FF0000001D0302103E0F24305E00A
:100880002154401CB042FBDB3046002200212154A1
:100890000B99C1F80880C1E900200FB0BDE8F08FC6
:1008A000BD1B6D1CDEE74A4600DA694206A800F06F
:1008B000DDFA06AB93E8070003AB83E80700504678
:1008C0000A9900F0DDFB8DE80700A0F500501F3805
:1008D00000900398002D09DD42F21F014A460844AA
:1008E00003A90390684600F03CFE08E0A0F5005024
:1008F0004A461F3803A90390684600F046FE8DE87B
:1009000007000004000C03D04FF0FF30410800E066
:100910001046B8F1000F03D00022009215461EE0E9
:10092000751E05D400F01CFA303262556D1EF9D5E3
:10093000B3460122084302D000227F1C04E0207845
:10094000302801D100227F1E002A099786D01DE0A1
:10095000112D07DA00F004FA303262556D1C50EAAE
:100960000102F5D1084302D00098C8B10EE0002181
:10097000681E05E0235C625C63542254401E491CDF
:100980008142F7DBAB46A81B401E0990002004F80B
:100990000B000B98099AC0F80880C0E9002B7CE78F
:1009A00011264FF0000859E72DE9F04F884604461C
:1009B000D21D22F0070191B0D1E90001CDE90A0171
:1009C00002F07CFF02460B98C00F01D02D2007E0FB
:1009D0002068810701D52B2002E0202101EAC00018
:1009E000032A099001D0072A05DB03464146204629
:1009F00000F0FCF90BE12078800601D5E06900E009
:100A00000620B8F1650F814606D0B8F1660F18D000
:100A1000B8F1670F70D131E00020B9F1110F0090EB
:100A200001DB112301E009F101030AAA01A90CA8C5
:100A3000FFF7E4FEDDE90C70002609F101058346AD
:100A400047E001204B4600904FF000470AAA01A959
:100A50000CA8FFF7D3FEDDE90DB00C995D4600262A
:100A600010B909F101000D18B9EB050003D4C0F16C
:100A7000FF3609F10105A5EB09002BE0B9F1010FE3
:100A800001DA4FF001090020B9F1110F009048463A
:100A900001DD112300E003460AAA01A90CA8FFF713
:100AA000ADFEDDE90C704D46002683462078000738
:100AB0000AD4AB4500DA5D4601A8012D04DD4119D9
:100AC00011F8011C302907D04F4502DA17F1040F45
:100AD00004DA012082460FE06D1EEEE7002F02DCF3
:100AE000ED1B3E4403E0781CA84200DD7D1CB81BD2
:100AF00000F1010A4FF000472078000703D4AA450F
:100B000001DB4FF0FF3A0021B7F1004F0DF1430830
:100B10008DF8431024D002202B23002F01DA7F42CE
:100B20002D230A21021EA0F1010000DC5FB197FB1A
:100B3000F1FC97FBF1F201FB1C7C17460CF1300C29
:100B400008F801CDEEE7A8F101000370218809053E
:100B500001D5452100E06521A0F1010800F8011C44
:100B600009980FA9A1EB0807FF1D00B10120411949
:100B700001EBEA70A1693844081A401EA061207890
:100B8000C00602D42046FFF79BFB099828B1D4E9A0
:100B900001219047206A401C20622078C00622D59F
:100BA0002046FFF78DFB1EE0002E04DBB34502DD7F
:100BB00001A8805D00E03020D4E901219047206A3F
:100BC000401C2062761CAAF101005FEA000A0AD1EB
:100BD00000F0C2F8C0680168405CD4E90121904788
:100BE000206A401C2062281EA5F10105DCDC07E01C
:100BF000D4E9012118F8010B9047206A401C2062BB
:100C0000381EA7F10107F3DC2046FFF76FFB032036
:100C100011B043E601694A1C02610878704700B5CB
:100C20008FB0CDE901310021059105497944CDE925
:100C3000031011466846FFF7CFFB0FB000BD000060
:100C4000E5FFFFFF0A6802F8010B0A607047D1E96F
:100C500000239A4202D2531C0B601070704710B5EB
:100C6000436913B1AFF3008001E0FFF750FB0120AF
:100C700010BD127800F124010A7000224A7001228E
:100C8000EDE711684FF0FF32E9E70000074B70B560
:100C90000D467B44FFF7C3FF0446284600F054F995
:100CA00010B14FF0FF3070BD204670BDA32E000084
:100CB00010B5203AC0F00B80B1E81850203AA0E8F7
:100CC0001850B1E81850A0E81850BFF4F5AF5FEA2B
:100CD000027C24BFB1E81850A0E8185044BF18C9DE
:100CE00018C0BDE810405FEA827C24BF51F8043B85
:100CF00040F8043B08BF7047D20728BF31F8023BD9
:100D000048BF11F8012B28BF20F8023B48BF00F86C
:100D1000012B70474FF000020429C0F0128010F040
:100D2000030C00F01781CCF1040CBCF1020F18BFCA
:100D300000F8012BA8BF20F8022BA1EB0C0100F05A
:100D400009B95FEAC17C24BF00F8012B00F8012B30
:100D500048BF00F8012B704700487047BC1D0020B9
:100D600030B5B0F10A024FEA900E71F100034EEA7D
:100D7000817EB0EB0E0061EB91014FEA101E4EEA4E
:100D8000017E10EB0E0041EB11114FEA102E4EEADE
:100D9000016E10EB0E0041EB11214FEA104E4EEAAE
:100DA000014E10EB0E0041EB1141401841F10001E2
:100DB0004FEAD00040EA41704FEAD10110EB8005C4
:100DC0004FEA810444EA907444EB01046D1944EB4A
:100DD0000404521BA3414FF0000348BF0A3200D560
:100DE00030BD401C41F1000130BD00002DE9F04153
:100DF0001F46044603260168072A01F4006004DB4D
:100E000008B116A505E016A503E008B115A500E098
:100E100015A521F010002060A069C01EA0610FB1CF
:100E2000401EA0612046FFF74BFA4FB1D4E90121E3
:100E300038469047206A401C2062C01C206206E0B1
:100E4000206AFAE7D4E9012115F8010B9047761ED4
:100E5000F8D22046FFF74AFABDE8F0814E414E0035
:100E60006E616E00494E4600696E66002DE9F047DE
:100E7000814616468AB0334878440DC88DE80D0087
:100E800030487844801C03AC0DC884E80D0041F65E
:100E90009B300844372190FBF1F290FBF1F5A5F16E
:100EA000800501FB12041B3C02D56442012000E0D6
:100EB0000020DFF890A080460027FA44AAF1BE0A7D
:100EC0000DE0E00709D03246684607EB47010AEB20
:100ED000810100F05AFB8DE8070064107F1C002C94
:100EE000EFD1184F7F44AC3F18E0E80714D007EB70
:100EF00004100DF1180A90E80E008AE80E00C06890
:100F0000F04201D198190890324606A903A800F0D2
:100F10003CFB03AB83E807006D10641C002DE4D19B
:100F200032466946B8F1000F03A802D000F019FB61
:100F300001E000F02AFBC9E90001C9F808200AB065
:100F4000BDE8F0870C8B0000007B00F0800070474C
:100F50004FF0000200B5134694469646203922BF52
:100F6000A0E80C50A0E80C50B1F12001BFF4F7AF9D
:100F7000090728BFA0E80C5048BF0CC05DF804EB7F
:100F8000890028BF40F8042B08BF704748BF20F8ED
:100F9000022B11F0804F18BF00F8012B70470000A2
:100FA000004870479C1D00207546FFF7F9FFAE46CC
:100FB00005006946534620F00700854618B020B565
:100FC000FFF72CF9BDE820404FF000064FF0000776
:100FD0004FF000084FF0000B21F00701AC46ACE8E1
:100FE000C009ACE8C009ACE8C009ACE8C0098D464E
:100FF00070470446AFF300802046FFF7FBF800007F
:101000004FF0013C50F8042B51F8043B9A4221D197
:10101000A2EB0C03934313EACC1317D150F8042B23
:1010200051F8043B9A4215D1A2EB0C03934313EA07
:10103000CC130BD150F8042B51F8043B9A4209D140
:10104000A2EB0C03934313EACC13DBD04FF0000068
:10105000704700BFD01A01BAB1FA81F101F018014E
:1010600022FA01F0CB40C1F12001DBB2C0B2C01ABC
:101070002CFA01F3D11A914311EAC311E6D170475A
:101080005FEA400C08BF91F0000F4FEA8C234FEA53
:10109000C12243EA51514FEA1C5018BF00F5F040FD
:1010A0004FEA300018BF41F000415FEA6C5C00F08D
:1010B0002980BCF1FF3F08BF40F080407047130C0F
:1010C00006BF12044FF0100C4FF0000C130E04BFBB
:1010D00012020CF1080C130F04BF12010CF1040CE6
:1010E000930F04BF92000CF1020CD30F04BF520007
:1010F0000CF1010C11464FF00002A0F11F00A0EB13
:101100000C00704711F0004F08BF704731F00041EC
:101110003FF4D5AF0B0C06BF09044FF0100C4FF095
:10112000000C0B0E04BF09020CF1080C0B0F04BFDE
:1011300009010CF1040C8B0F04BF89000CF1020CA7
:10114000CB0F04BF49000CF1010CCCF12003A0EB44
:101150000C0022FA03F302FA0CF241EA030100F157
:101160000100704720F07F4C80EA030023F07F47A6
:10117000ACEB070303F57C5300F0004003F1FF03E1
:101180002DE980494FEA154B09B44FEA144325EA8B
:101190000B4E24EA03480FF2042606EB13274908F6
:1011A0003E785FEA320203FB0667C7F5000707FBDC
:1011B00006F64FEA54374FEAD64606F1020607FB19
:1011C000066CCCF1005C4FEA1C472CEA074C07FB8D
:1011D00006F40CFB06F504EB15464FEA961634BFF1
:1011E00000204FF000404FEAD13706FB07FC4FEAE2
:1011F0001C4C0CFB0BF7D21B03FB0CF761EB07013C
:101200000CFB0EF7B0EB074072EB17420CFB08F734
:1012100034BFA2EB0742B2EB074261EB17414FEA42
:101220000C444FEA910706FB07FC4FEA1C4C0CFBF1
:101230000BF7B0EBC74072EB573203FB0CF734BF30
:10124000A2EBC742B2EBC74261EB57310CFB0EF782
:10125000B0EBC70072EB57720CFB08F734BFA2EB80
:10126000C702B2EBC70261EB5771039F4FEA81617E
:1012700041EA921104EBCC044FEAD1374FEA826283
:1012800006FB07FC42EA90124FEA80604FEA1C4CD2
:101290000CFB0BF7D21B03FB0CF761EB07010CFBFC
:1012A0000EF7B0EB074072EB17420CFB08F734BFA8
:1012B000A2EB0742B2EB074261EB17414FEA8C55B4
:1012C0004FEA910704EB9C2406FB07FC4FEA1C4CF9
:1012D0000CFB0BF7B0EBC74072EB573203FB0CF77C
:1012E00034BFA2EBC742B2EBC74261EB57310CFBF4
:1012F0000EF7B0EBC70072EB57720CFB08F734BF68
:10130000A2EBC702B2EBC70261EB577115EB4C259C
:101310004FEA816141EA92114FEA82624FEAD13786
:1013200042EA901206FB07FC44F100044FEA806099
:101330004FEA1C4C0CFB0BF7D21B03FB0CF761EBC9
:1013400007010CFB0EF7B0EB074072EB17420CFBEA
:1013500008F734BFA2EB0742B2EB074261EB17413B
:1013600015EB1C154FEA813141EA92414FEA823276
:1013700042EA90424FEA80304FEA0C7644F1000492
:1013800048EA03434EEA0B484FF0000EB2EB080C5C
:1013900071EB030724BF624639464EEB0E0E4FF049
:1013A000000B0018524149414BEB0B0BB2EB080C00
:1013B00071EB03077BF1000B24BF624639464EEB0D
:1013C0000E0E4FF0000B0018524149414BEB0B0B36
:1013D000B2EB080C71EB03077BF1000B24BF6246F4
:1013E00039464EEB0E0E51EA020718BF46F00106D1
:1013F00016EB0E7655F1000254F1000103D5BDE85D
:101400008901BDE80088BDE88901BDE80048B6193A
:10141000524141EB0101A3F10103704780807F7EBF
:101420007D7C7B7A7978777676757473727171705A
:101430006F6E6E6D6C6C6B6A6A696868676666650C
:101440006464636362616160605F5F5E5E5D5D5C9A
:101450005C5B5B5A5A59595858575756565555550B
:101460005454535352525251515050504F4F4F4E6B
:101470004E4D4D4D4C4C4C4B4B4B4A4A4A494949B9
:1014800048484847474747464646454545444444FB
:10149000444343434342424242414141002B26D40C
:1014A000770021D01CB54FEA370703B44FF0100086
:1014B0004FF010014FF000000FBCBDE810400BF1E1
:1014C000010BBBF1010F08BF5FEA170722BF12F142
:1014D000010211F101014FF0004143F1000300F05E
:1014E000004043EA00007047F9D35708DAE746EABC
:1014F000064613F1400F4FEA16461FDD13F1200F89
:10150000DFBF16430A46002120335B42C8D0C3F137
:10151000200746EA064602FA07F74FEA164646EA69
:101520000706C3F1200722FA03F201FA07F721FAAE
:1015300003F14FF0000342EA0702B1E746EA020670
:1015400046EA06464FEA164646EA0106BCBF46EAA8
:101550000646360C4FF000034FF000024FF000013A
:101560009EE72DE9C048934630B491E8380007C89B
:1015700031EA400C48BF34EA430C03D5FFF7F2FDD3
:10158000FFF78CFFF0BCBDE800882DE9C04893460A
:1015900030B491E8380007C810F0804F08BF13F04E
:1015A000804F03D100F005F8FFF778FFF0BCBDE8ED
:1015B000008820F07F4780EA030023F07F4C07EB90
:1015C0000C03A3F57C5300F00040A3F1FE0392F05E
:1015D000000F00F0B38095F0000F00F077802DE948
:1015E00001494FEA11404FEA144621EA004800FB46
:1015F00006FC24EA064708FB06F607FB08F800FB92
:1016000007F718EB06484CEB164C4FEA124B18EB59
:1016100007484FEA15464CEB174022EA0B4E0BFBEE
:1016200006FC25EA06470EFB06F607FB0EFE0BFB43
:1016300007F71EEB064E4CEB164C4FF000061EEB68
:10164000074E4CEB174B18EB0B0840F1000018EB62
:101650000E0B58EB000840F100008F1A4FF000010C
:101660003CBFC943661B14BFB5EB040C00213CBF53
:10167000C943F61B4FEA17444EEA8E0E27EA04458B
:101680004FEA1C4704FB07622CEA074C05FB07F7EF
:101690000CFB05F604FB0CFC16EB074642EB17426D
:1016A00016EB0C4642EB1C421BEB060658EB020203
:1016B000414146EA9E0601D5BDE80189B61952416D
:1016C00041EB0101A3F10103BDE801894FEA144593
:1016D0004FEA114724EA054621EA074C05FB07F4C7
:1016E00006FB07F70CFB06F105FB0CFC11EB0741B1
:1016F00044EB17444FEA124711EB0C4144EB1C44F6
:1017000022EA074C05FB07F206FB07F70CFB06F67F
:1017100005FB0CFC16EB074642EB174216EB0C469A
:1017200042EB1C456A1854F1000148BF7047B619D6
:10173000524141EB0101A3F10103704795F0000F05
:1017400037D04FEA11424FEA144721EA024624EA11
:10175000074C02FB07F106FB07F70CFB06F402FB44
:101760000CFC14EB074441EB17414FEA154714EB0F
:101770000C4441EB1C4125EA074C02FB07F506FB34
:1017800007F70CFB06F602FB0CFC16EB074645EBD5
:10179000174516EB0C4645EB1C42121951F100019E
:1017A00048BF7047B619524141EB0101A3F1010353
:1017B00070474FEA14454FEA114724EA054621EAEB
:1017C000074C05FB07F106FB07F70CFB06F24FF091
:1017D000000605FB0CFC12EB074241EB174112EB34
:1017E0000C4251EB1C4148BF7047921841EB01017C
:1017F000A3F1010370470146C86C80B270470246EE
:10180000002013680B400BB1012000E0002070475E
:10181000F0B504460D4600200021092D11DDE068D9
:10182000A5F10A0606EB4607072606FA07F18843E4
:10183000A5F10A0606EB460603FA06F10843E06046
:101840000CE0206905EB4507072606FA07F18843F7
:1018500005EB450603FA06F108432061072A0FDA73
:10186000606B561E06EB86071F2606FA07F18843B3
:10187000561E06EB860605FA06F10843606322E071
:101880000D2A0FDA206BD61F06EB86071F2606FAF5
:1018900007F18843D61F06EB860605FA06F10843D2
:1018A000206310E0E06AA2F10D0606EB86071F2612
:1018B00006FA07F18843A2F10D0606EB860605FA43
:1018C00006F10843E062F0BD21B1826842F4A00253
:1018D000826003E0826822F4A0028260704710B543
:1018E00040F2FF7000F045F80446552C01D100206D
:1018F00010BD552140F2FF7000F079F840F2FF7002
:1019000000F037F80446552C01D10020F0E7012003
:10191000EEE7000008B50121082001F0AFF9E02052
:10192000ADF8000010208DF8030003208DF80200B0
:101930006946064800F0ECFBC021044800F075FC45
:101940002021024800F06FFC08BD0000000C01409F
:1019500070B506460C46154608E03046721C96B235
:1019600000F007F804F8010B681E85B2002DF4D1D1
:1019700070BD70B50446002600F05AFE2546E117FA
:1019800004EB11610912A02202EB4101C8B200F080
:10199000DBFD00F0E5FEE11704EB11610912A4EB99
:1019A0000121C8B200F0D0FD00F0DAFE00F040FEE8
:1019B000A12000F0C9FD00F0D3FE002000F054FD8E
:1019C000064600F081FE304670BD70B505460C46F7
:1019D000164606E02178284600F009F8681C85B212
:1019E000641C3000A6F101018EB2F3D170BD70B558
:1019F00004460E4600F01CFE2546E11704EB11617B
:101A00000912A02202EB4101C8B200F09DFD00F0D6
:101A1000A7FEE11704EB11610912A4EB0121C8B282
:101A200000F092FD00F09CFE304600F08DFD00F0CD
:101A300097FE00F049FE0A2002F00EF870BD70B566
:101A400003460C4600201DE014F81010402903DA6C
:101A50000D072D0E1D5403E0CD1F2D072D0E1D5417
:101A600045006D1C615D402905DA1D5CA1F1300661
:101A700035431D5404E01E5CA1F137052E431E546E
:101A8000451CE8B29042DFDB70BD00BFFEE710B539
:101A900000F07EFC10BD000010B500F0EFFDB82096
:101AA00000F08CFD00F08EFE002000F087FD00F0BD
:101AB00089FE00F0E3FDB92000F080FD00F082FE19
:101AC000002406E0012000F007FD07490855601CCE
:101AD000C4B2042CF6DB002000F0FEFC02490855DD
:101AE00000F018FE10BD0000380000202DE9F04F76
:101AF00087B081460C46FFF7CFFF34480078334962
:101B0000497808443149897808443049C9780844FB
:101B10002E490979884255D12C49487806F0BEFAF9
:101B200007462B4906F0D8F905462849087806F0FB
:101B3000B5FA0646294606F06DF9C9F800002348B3
:101B4000C07800F0800008B32049C87806F0A6FAF3
:101B5000019006F033F9074600221E4B05F0CEFD3A
:101B6000CDE904011949887805F020FFCDE902018B
:101B7000DDE9042305F01AFD05460022134606F0B0
:101B800027F8824605F0E0FC20601BE00F49C8788A
:101B900006F084FA039006F011F900220D4BCDE90E
:101BA000040105F0ABFD074688460849887805F032
:101BB000FDFE82463A46434605F0F8FC054605F030
:101BC000C3FC206007B0BDE8F08F000038000020A3
:101BD00000002041000024407047000070B504461A
:101BE000002500F0ADF9FF220021104600F072FA46
:101BF00004E0681C85B2012001F02EFF1D2000F0DA
:101C00005AF900F0010010B9B5F5FA7FF1DBB5F52E
:101C1000FA7F01DB012070BD00204C4908600021E3
:101C2000082000F033FA0021092000F02FFA0021EB
:101C30000C2000F02BFA00210D2000F027FA1021D3
:101C40000A2000F023FA1A210B2000F01FFA1121BC
:101C5000042000F01BFA1A21052000F017FAFF21DA
:101C6000062000F013FA1F21072000F00FFAB02120
:101C7000382000F00BFA3F21282000F007FA30212D
:101C8000292000F003FAF921302000F0FFF9F721B4
:101C9000312000F0FBF90D21C02000F0F7F9002100
:101CA000C12000F0F3F93322C221802000F012FAA3
:101CB0001221C62000F0EAF90C21C72000F0E6F955
:101CC0001521C42000F0E2F9EE21CA2000F0DEF96F
:101CD0000521CB2000F0DAF92178E42000F0D6F9D4
:101CE0006178E52000F0D2F9A178E22000F0CEF989
:101CF000E178E32000F0CAF92179E02000F0C6F98C
:101D00006179E12000F0C2F94FF48071002000F009
:101D10001FF84FF48071102000F01AF81F2000F017
:101D20009BF9C0221B21802000F0D4F904221F213E
:101D3000802000F0CFF9E42000F0BDF8217888423F
:101D400001D1002067E7012065E700003400002092
:101D500070B505460C4600262946D42000F096F9B9
:101D6000E1B2D62000F092F9C4F30721D72000F0A9
:101D70008DF901E0701C86B2EA2000F09CF800F0BA
:101D8000010018B140F6FF708642F3DB70BD000021
:101D90002DE9F04105460F46392000F08CF810B9C6
:101DA0000020BDE8F08129480178002000F06EF99C
:101DB00026480088C0F30721012000F067F90021C0
:101DC0003A2000F09DF82149086000213A2000F0F7
:101DD00097F81E49096841EA00201C490860002163
:101DE0003A2000F08DF8044600213A2000F088F8EF
:101DF00044EA0024241F00213A2000F081F806461E
:101E000000213A2000F07CF846EA0026681EA04235
:101E100000D26C1E06F0800008B9002403E03946A9
:101E2000204600F053F8094801780C2000F02EF904
:101E300006480088C0F307210D2000F027F9402252
:101E40001E21802000F046F92046AAE73400002039
:101E500070B504460D461121022000F017F91A2131
:101E6000032000F013F911202044C1B2062000F035
:101E70000DF941F611202044C0F30721072000F09E
:101E800005F9002211467A2000F024F9294620465F
:101E900000F008F908221F21802000F01BF91C2007
:101EA00000F009F800F0020020B108221F21A02054
:101EB00000F010F970BD10B50446204600F0CCF8D3
:101EC0002146002000F01CF810BD000070B505464A
:101ED0000C460020094908603A2001F04DF905E060
:101EE0006D1E002001F048F92070641C002DF7D110
:101EF0000020207001200149086070BD900121423E
:101F000070B505460C46002600200C49086004F018
:101F10001F0040EA0506304601F02EF9FF2001F0CF
:101F20002BF9064604F0800018B1FF2001F024F9D7
:101F30000646012001490860304670BD90012142EB
:101F400010B500F01BF8082001F040F940F2CF2155
:101F5000642001F075FA0020064908600A2001F0AB
:101F60007BFD01200449C1F88C010A2001F074FDB9
:101F700010BD00008C0121420000214200B587B055
:101F80000121080300F07AFE0121042000F076FE12
:101F90001020ADF804008DF8070003208DF806002E
:101FA00001A92B4800F0B4F81021294800F03DF9B0
:101FB0000820ADF8040001A9254800F0A9F808217F
:101FC000234800F032F90420ADF8040001A92048AC
:101FD00000F09EF804211E4800F027F9E020ADF83B
:101FE000040018208DF8070003208DF8060001A9D1
:101FF000174800F08DF8E021154800F016F9002090
:10200000ADF808004FF48270ADF80A000020ADF87A
:102010000C00ADF80E00ADF810004FF40070ADF8F4
:1020200012003820ADF814000020ADF8160007208B
:10203000ADF8180002A9074801F0F6F8012105489B
:1020400001F0D8F8FF2001F097F807B000BD0000BC
:10205000000801400030014010B5044604F0600063
:102060000949097888420ED003221F21A02000F0E0
:1020700031F8C4F341121F21802000F02BF804F046
:1020800060000149087010BD3000002070B50446A2
:102090000D462046FFF7E0FF2A462146402000F08B
:1020A00019F870BD70B504460D4600200849086057
:1020B0007A2001F061F804E0641E287801F05CF8F1
:1020C0006D1C002CF8D101200149086070BD000092
:1020D000900121422DE9F04104460D4616460027A5
:1020E00000200949086005F01F0040EA040738464F
:1020F00001F042F8304601F03FF801200349C1F8F1
:102100009001BDE8F08100009001214200002142D1
:102110002DE9F0410246002500260020002300247E
:10212000002791F803C00CF00F0591F803C00CF0E4
:10213000100CBCF1000F03D091F802C04CEA050569
:1021400091F800C0BCF1000F31D0146800202BE0E2
:102150004FF0010C0CFA00F3B1F800C00CEA0306D2
:102160009E4220D183004FF00F0C0CFA03F7BC43C2
:1021700005FA03FC4CEA040491F803C0BCF1280FF3
:1021800006D14FF0010C0CFA00FCC2F814C00AE0B2
:1021900091F803C0BCF1480F05D14FF0010C0CFAC7
:1021A00000FCC2F810C0401C0828D1D31460B1F85C
:1021B00000C0BCF1FF0F34DD546800202EE000F1B8
:1021C000080C4FF0010808FA0CF3B1F800C00CEA53
:1021D00003069E4221D183004FF00F0C0CFA03F747
:1021E000BC4305FA03FC4CEA040491F803C0BCF1BB
:1021F000280F05D100F1080C08FA0CF8C2F8148079
:1022000091F803C0BCF1480F07D100F1080C4FF062
:10221000010808FA0CF8C2F81080401C0828CED338
:102220005460BDE8F0814161704701617047000072
:1022300010B504460723012221460948FFF7E8FAB2
:1022400001210748FFF740FB00BF02210448FFF7C8
:10225000D6FA0028F9D00248FFF7CDFA10BD0000E9
:10226000002401402DE9F04107460C4600250026D8
:1022700008E03846FFF7DCFF0544052001F0ECFBE1
:10228000701CC6B2A642F4DBB5FBF4F080B2BDE828
:10229000F08100BFFEE770B503460C46002020E049
:1022A000255C29090A2904DA01F1300503F81050E8
:1022B00003E001F1370503F81050255C05F00F012C
:1022C0000A2906DA01F13005EEB245006D1C5E55B3
:1022D00005E001F13705EEB245006D1C5E55451C69
:1022E000E8B29042DCDB002503F8105070BD00001E
:1022F00010B500200F4908600F48006820F07040BA
:102300000D4908600846006840F040500860002011
:102310000A49C1F89C01022001F0C4FB01200549D3
:102320000860022001F0BEFB00200449C1F89801BA
:1023300010BD000098812142000C01400080214224
:1023400010B500200F4908600F48006820F0F00029
:102350000D4908600846006840F030000860002021
:102360000A49C1F8A401022001F09CFB01200549A3
:102370000860022001F096FB00200449C1F8A0018A
:1023800010BD0000A0812142040C014000802142C8
:1023900008B50121082000F071FC4FF44070ADF841
:1023A000000010208DF8030002208DF8020069461D
:1023B0000448FFF7ADFE4FF440710248FFF735FFC8
:1023C00008BD0000000C014010B500200F49086056
:1023D0000F48006820F070400D490860084600680A
:1023E00040F04050086001200A49C1F89C010220D9
:1023F00001F058FB012005490860022001F052FB62
:1024000000200449C1F8980110BD000098812142C4
:10241000000C01400080214210B500200F490860E7
:102420000F48006820F0F0000D4908600846006879
:1024300040F03000086001200A49C1F8A4010220E0
:1024400001F030FB012005490860022001F02AFB61
:1024500000200449C1F8A00110BD0000A081214264
:10246000040C01400080214270B505460024174845
:10247000006820F07040154908600846006840F088
:1024800000400860002616E0002011490860022084
:1024900001F008FB01200F49C1F898016006040E05
:1024A0000B487C38006808B1601CC4B2012001F000
:1024B000F9FA701CC6B2082EE6DB15B9FFF784FFE7
:1024C00001E0FFF715FF204670BD0000000C014041
:1024D000988121420080214270B5054600241748AA
:1024E000006820F0F000154908600846006840F0D8
:1024F00080000860002616E00020114908600220D4
:1025000001F0D0FA01200F49C1F8A0016006040EC5
:102510000B487C38006808B1601CC4B2012001F08F
:10252000C1FA701CC6B2082EE6DB15B9FFF774FFBE
:1025300001E0FFF705FF204670BD0000040C0140DC
:10254000A08121420080214270B5044618480068ED
:1025500020F07040164908600846006840F040507E
:10256000086000201349086000251EE0E00920B142
:1025700001201049091D086003E000200D49091DD4
:1025800008606006040E022001F08CFA012009495F
:102590000860022001F086FA00200749C1F898017E
:1025A000022001F07FFA681CC5B2082DDEDB70BD89
:1025B000000C0140988121420080214270B5044600
:1025C0001848006820F0F0001649086008460068C6
:1025D00040F03000086000201349086000251EE02C
:1025E000E00920B101201049091D086003E0002026
:1025F0000D49091D08606006040E022001F052FA20
:10260000012009490860022001F04CFA0020074926
:10261000C1F8A001022001F045FA681CC5B2082DDE
:10262000DEDB70BD040C0140A0812142008021420C
:1026300010B50F48006820F070400D49086008464A
:10264000006840F04050086001200A4908600A49CB
:10265000C1F89801042001F025FA0020054908601E
:10266000042001F01FFA00200349C1F8980110BDB1
:10267000000C01409C8121420080214210B50F488E
:10268000006820F0F0000D4908600846006840F03E
:102690003000086001200A4908600A49C1F8A00119
:1026A000042001F0FFF9002005490860042001F032
:1026B000F9F900200349C1F8A00110BD040C014044
:1026C000A48121420080214210B50F48006820F00B
:1026D00070400D4908600846006840F040500860AE
:1026E00000200A4908600A49C1F89C01042001F051
:1026F000D9F90120054908600549C1F89C01042069
:1027000001F0D0F910BD0000000C01409881214279
:102710000080214210B50F48006820F0F0000D49FC
:1027200008600846006840F03000086000200A4950
:1027300008600A49C1F8A401042001F0B3F901209E
:10274000054908600549C1F8A401042001F0AAF96F
:1027500010BD0000040C0140A081214200802142F4
:1027600010B500241448006820F070401249086039
:102770000846006840F00040086001200F490860EA
:1027800001F090F901200E49C1F8980101F08AF991
:1027900007E0601CC4B2FA2C03DDFFF795FF0120AF
:1027A00010BD0648803800680028F2D10349091F8F
:1027B000086000BFF4E70000000C01409C8121424A
:1027C0000080214210B500241448006820F0F00079
:1027D000124908600846006840F080000860012047
:1027E0000F49086001F05EF901200E49C1F8A0010F
:1027F00001F058F907E0601CC4B2FA2C03DDFFF7C2
:1028000089FF012010BD0648803800680028F2D1F9
:102810000349091F086000BFF4E70000040C0140F1
:10282000A4812142008021424CF6CC40014908603D
:10283000704700000030004010B500F013F810BDE4
:1028400070B505460C4645F2555000F01FF8284675
:1028500000F010F8204600F013F800F003F8FFF73E
:10286000E3FF70BD4AF6AA200149086070470000E6
:1028700000300040014948607047000000300040CF
:10288000014988607047000000300040014908603D
:10289000704700000030004030B58BB00446002582
:1028A00094B940F2FE70FFF764F80546992D04D004
:1028B00040F2FE70FFF75DF80546992D04D040F216
:1028C000FE70FFF756F80546992D7CD000208DF854
:1028D0000000C0208DF80100A8218DF80210012110
:1028E0008DF8031064218DF8041078208DF8050010
:1028F0004D218DF80610F0218DF8071085218DF8F7
:102900000810C0208DF80900A8218DF80A100121B7
:102910008DF80B108DF80C10FF208DF80D00FF21A5
:102920008DF80E108DF80F1000218DF81010042076
:102930008DF8110002218DF8121035218DF8131039
:1029400000218DF814108DF8151001218DF8161046
:102950004FF49660ADF818004FF4AF60ADF81A0070
:1029600001208DF81C008DF81D00C820ADF81E0058
:10297000002008900990FFF75FFF0122694610468A
:10298000FFF723F804220DF101010220FFF71DF8E3
:10299000FFF752FF04220DF105010620FFF715F89D
:1029A00004220DF109010A20FFF70FF8FFF744FF99
:1029B00004220DF10D010E20FFF707F806220DF19C
:1029C0001101122000E02AE0FEF7FFFFFFF734FFBD
:1029D000022206A91820FEF7F8FF02220DF11A01C3
:1029E0001A20FEF7F2FFFFF727FF012207A91C209C
:1029F000FEF7EBFF01220DF11D011D20FEF7E5FFA3
:102A0000FFF71AFF02220DF11E011E20FEF7DDFF67
:102A1000FFF712FF992140F2FE70FEF7E8FF012256
:102A200022491046FEF794FF04222049491C022047
:102A3000FEF78EFF04221D49491D0620FEF788FF80
:102A400004221A4909310A20FEF782FF042217499D
:102A50000D310E20FEF77CFF0622144911311220A1
:102A6000FEF776FF0222114918311820FEF770FF99
:102A700002220E491A311A20FEF76AFF5CB90122C0
:102A80000A491C311C20FEF763FF012207491D3152
:102A90001D20FEF75DFF022204491E311E20FEF7B5
:102AA00057FFFFF7C9FE0BB030BD0000E01B002050
:102AB0000146CA1701EB92729210A1EB820292B901
:102AC000642091FBF0F200FB121050B94FF4C87073
:102AD00091FBF0F200FB121008B9012070470020B2
:102AE000FCE70120FAE70020F8E7000008B5012123
:102AF000042000F0C3F80320ADF8000010208DF88A
:102B0000030003208DF8020069460648FFF700FB2A
:102B100001210448FFF789FB02210248FFF785FBEA
:102B200008BD00000008014000BFFEE7704710B577
:102B30004FF4A06000F03AF810BD000070B500211D
:102B400000230F22C47804B3154C246804F4E06415
:102B5000C4F5E064210AC1F10403CA40447804FAD0
:102B600003F184781440214309010E4C0678A155E5
:102B7000047804F01F050124AC4005786D11AD0008
:102B800005F1E025C5F8004109E0047804F01F05CF
:102B90000124AC40044D0678761145F8264070BDFE
:102BA0000CED00E000E400E080E100E002490143B8
:102BB000024A1160704700000000FA050CED00E0C9
:102BC000F0B59BB005460F4600263FE0A85D2128E2
:102BD0003AD16D1C022229461AA8FEF730FF9DF853
:102BE00068004006000E1A909DF86820294601A84A
:102BF000FEF725FF01AC60781649097888421FD19D
:102C0000A07805281BD2DFE800F003081012170097
:102C10002179E07800F04CFA11E02278121FD1B24D
:102C2000E078221D00F0C8FD09E000F091FB0120D2
:102C3000FFF732FE00F08CFB00F094F900BF00BFFC
:102C40009DF86800304486B2701C86B2BE42BDDB7F
:102C50001BB0F0BDE01B00207047000029B1064A00
:102C6000D2690243044BDA6104E0034AD269824329
:102C7000014BDA61704700000010024029B1064A9A
:102C800092690243044B9A6104E0034A92698243C9
:102C9000014B9A61704700000010024030B50021DE
:102CA0000022002400232D4D6D6805F00C0121B198
:102CB000042905D0082923D105E0294D056022E02B
:102CC000274D05601FE0254D6D6805F47012234DFA
:102CD0006D6805F48034022505EB92421CB9214D44
:102CE000554305600BE01D4D6D6805F400351DB1C1
:102CF0001C4D5543056002E0194D5543056002E047
:102D0000174D056000BF00BF144D6D6805F0F00160
:102D10000909154D6B5C0568DD4045600F4D6D6818
:102D200005F4E061090A104D6B5C4568DD40856083
:102D30000A4D6D6805F46051C90A0B4D6B5C45681E
:102D4000DD40C560054D6D6805F44041890B074DB8
:102D50006B5CC568B5FBF3F5056130BD0010024042
:102D600000127A0000093D0052000020620000209D
:102D7000024909888143014A1180704704280040B4
:102D800070B50026002400253B4806883604001D47
:102D9000008806443948B6FBF0F439480088A04260
:102DA0003CD037490C8040F2B27510E02846FFF75E
:102DB0007FFE40B1B4F5B77F02D3A4F5B77404E049
:102DC000681C85B206E0A4F26D14681C85B2B4F5E7
:102DD000B67FEBD800BF2B488580002516E0294937
:102DE0008888FFF765FE30B1012D04D11D2C01D379
:102DF0001D3C09E00CE02448405DA04203D8224875
:102E0000405D241A00E003E0681C85B21C2CE6D269
:102E100000BF681C1B498871601CC8711748B6FB4D
:102E2000F0F100FB11644FF46160B4FBF0F0154960
:102E300008704FF46160B4FBF0F100FB11403C21DD
:102E4000B0FBF1F00F4948704FF46160B4FBF0F152
:102E500000FB11403C21B0FBF1F201FB12000949DB
:102E600088700B46DA799979988800F021F805493D
:102E70000872002070BD0000182800408051010039
:102E800028000020900700205683000801460020FB
:102E9000064A12880A40D0B2044A121F12880A4019
:102EA00012B108B1012000E0002070470428004062
:102EB000F0B503460C461546642093FBF0F0C6B20D
:102EC000642093FBF0F700FB1730C1B2132E02DD34
:102ED00001F16400C1B20846CF1701EB977701EB0F
:102EE000A707BAB2072092FBF0F700FB172082B2C7
:102EF0005719601EDFF82CC01CF80000384482B25D
:102F0000CF1701EB9777BF10A1EB87071FB9032CF1
:102F100001DA501E82B2072092FBF0F700FB172067
:102F2000C0B2F0BD4A83000810B50120FFF7AEFF24
:102F300008B1FFF725FF0220FFF7A8FF10B102201C
:102F4000FFF716FF0520FFF713FF00F001F810BD93
:102F500000BF0348008800F020000028F9D0704727
:102F6000042800402DE9FF413D48007F30B1012891
:102F700022D002283ED003286ED154E03849486A56
:102F800004F01CFF04460D463549086A04F016FF9C
:102F90008DE833003248027832A13D48FDF75EF9F2
:102FA0003C48007800F0800028B13A48007840F0B2
:102FB00020003849087050E02949486A04F0FEFEB4
:102FC00004460D462649086A04F0F8FE8DE83300F1
:102FD0002348027823A13048FDF740F92F480078B4
:102FE00000F0800028B12D48007840F020002B49E7
:102FF000087032E01A49486A04F0E0FE04460D46C3
:103000001749086A04F0DAFE8DE8330014480278A4
:1030100014A12348FDF722F92248007840F020004F
:103020002049087019E00E49486A04F0C7FE0446BA
:103030000D460B49086A04F0C1FE8DE833000848CC
:10304000027808A11848FDF709F91848007840F0FF
:1030500020001649087000E000BF00BFBDE8FF81F6
:10306000E01B0020485453656E736F72256420681E
:10307000756D6964203D20252E31662C2074656DA8
:10308000706572203D20252E31660D0A000000007B
:10309000041B0020B10000203C1A0020B0000020DA
:1030A000D41C0020880700200C1C00208007002072
:1030B00030B599B005460C46224669462846FEF7CB
:1030C00047FC2448007F30B1012815D0022824D0C5
:1030D00003283AD12DE0224669461F48FFF7DBF866
:1030E0001E48007800F0800028B11C48007840F0AD
:1030F00020001A49087029E0224669461848FFF75F
:10310000CAF81848007800F0800028B11548007807
:1031100040F020001349087018E022466946124822
:10312000FFF7B9F81148007840F020000F49087007
:103130000CE0224669460E48FFF7ADF80D480078CE
:1031400040F020000B49087000E000BF00BF19B03C
:1031500030BD0000E01B00200F1B0020B10000204C
:10316000471A0020B0000020DF1C00208807002044
:10317000171C00208007002070B50546002405E0DC
:10318000601CC4B2C82C01DD002070BD02210E48B5
:1031900000F03CF80028F3D029460B4800F042F834
:1031A000002405E0601CC4B2C82C01DD0020ECE75F
:1031B0000121054800F02AF80028F3D0024800F069
:1031C0002EF8C0B2E1E700000030014010B504461F
:1031D000074800884FF6C77108400549088008462F
:1031E0000088204308800121014800F003F810BD49
:1031F0000030014021B1028842F04002028004E028
:1032000002884FF6BF731A400280704702460020C2
:1032100013890B400BB1012000E0002070470146EC
:10322000888970478181704710B50022028802F4B6
:1032300041520B884C8823438C882343CC882343FA
:103240000C8923434C8923438C892343CC89234312
:103250001A430280838B4FF2FF74234083830B8ACF
:10326000038210BD704710B500F002F810BD0000D9
:103270000CB50020019000903348006840F4803085
:103280003149086000BF3048006800F40030009009
:103290000198401C0190009818B90198B0F5A06FF2
:1032A000F1D12948006800F4003010B101200090ED
:1032B00001E0002000900098012843D123480068D5
:1032C00040F01000214908600846006820F0030023
:1032D00008600846006840F0020008601A4840682C
:1032E000194948600846406848600846406840F40C
:1032F000806048600846406820F47C1048600846BA
:10330000406840F4E81048600846006840F080706B
:10331000086000BF0C48006800F000700028F9D079
:103320000948406820F003000749486008464068A3
:1033300040F00200486000BF0348406800F00C0005
:103340000828F9D10CBD0000001002400020024006
:10335000012080F3138800BF00BF0748006800F415
:10336000E06006490843001D03490860BFF3408F31
:1033700000BF00BFFEE700000CED00E00000FA0512
:10338000042808D14FF0E021096941F004014FF011
:10339000E022116107E04FF0E021096921F004010A
:1033A0004FF0E022116170477047000010B51348DC
:1033B000006840F001001149086008464068104963
:1033C00008400E494860084600680E4908400B490D
:1033D00008600846006820F48020086008464068BD
:1033E00020F4FE0048604FF41F008860FFF73BFFA9
:1033F0004FF000600449086010BD0000001002405A
:103400000000FFF8FFFFF6FE08ED00E010B5012117
:10341000880700F051F848B107480068401C064989
:1034200008600648008D401C044908850121880772
:1034300000F033F810BD00002C000020E01B00203D
:103440007FB505460C4601210846FFF707FCADF89D
:103450000850ADF804400020ADF80A00ADF80600B1
:1034600001A94FF0804000F041F801224121880776
:1034700000F033F80121880700F012F81C208DF8C5
:10348000000002208DF801008DF8020001208DF867
:1034900003006846FFF752FB7FBDCA4302827047B4
:1034A00021B1028842F00102028004E002884FF656
:1034B000FE731A400280704730B502460020002398
:1034C0000024158A05EA0103958905EA010413B170
:1034D0000CB1012000E0002030BD1AB183890B43FC
:1034E000838102E083898B438381704700220288B5
:1034F0001D4B98420ED01D4B98420BD0B0F1804F1F
:1035000008D01B4B984205D01A4B984202D01A4B58
:10351000984204D14FF68F731A404B881A43174BC9
:10352000984207D0164B984204D04FF6FF431A40FA
:10353000CB881A4302808B8883850B8803850A4BCE
:1035400098420BD0094B984208D00E4B984205D0B8
:103550000D4B984202D00D4B984201D10B7A038655
:103560000123838270470000002C01400034014099
:103570000004004000080040000C00400010004023
:103580000014004000400140004401400048014058
:1035900010B540F225511D4800F04AF810B31B4801
:1035A00000F002F9C4B21A48008800F40040C8B91B
:1035B0001748008800F4804060B10A2C03D0002036
:1035C0001349088020E01248008840F40040104968
:1035D000088019E00D2C06D10D48008840F4804089
:1035E0000B49088010E00A480088C0F30D00094923
:1035F0000C5407480088401C05490880084600888C
:10360000C72801DD0020088010BD000000380140FF
:10361000500000209A07002021B1828942F4005214
:10362000828104E082894DF6FF731A4082817047DF
:1036300070B50246002400230025002040F66A16DB
:10364000B14200D100BFC1F3421501F01F030126B2
:1036500006FA03F3012D02D19689334006E0022DCC
:1036600002D1168A334001E0968A33400C120126BB
:1036700006FA04F41688344013B10CB1012000E0BE
:10368000002070BDF0B50346002400260025002070
:1036900040F66A17B94200D100BF1846C1F3421480
:1036A00001F01F06012707FA06F5012C01D10C30A5
:1036B00004E0022C01D1103000E014301AB1076888
:1036C0002F43076002E00768AF430760F0BD0000CA
:1036D0002DE9F04786B005460E460024A24600BFFD
:1036E000A1460027B08900B100BF2F462C8A4CF6B6
:1036F000FF700440F08804432C82AC894EF6F3102E
:103700000440B08831890843718908430443AC817F
:10371000AC8A4FF6FF400440B0890443AC8201A854
:10372000FFF7BCFA1F48874202D1DDF810A001E084
:10373000DDF80CA0A88900F4004040B10AEBCA00F3
:1037400000EB0A1031684900B0FBF1F807E00AEB22
:10375000CA0000EB0A1031688900B0FBF1F8642060
:10376000B8FBF0F004012009642101FB1089A8894D
:1037700000F4004040B1322000EBC900B0FBF1F092
:1037800000F00700044308E0322000EB0910642138
:10379000B0FBF1F000F00F0004432C8106B0BDE84F
:1037A000F08700000038014001468888C0F3080017
:1037B000704700BFFEE7000070B506460C46154690
:1037C000224629463046FEF700F92B48007F30B1EB
:1037D000012819D002282CD003284AD139E0274AE1
:1037E000211D022303FB0121481C25A1FCF736FD06
:1037F0002B48007800F0800028B12948007840F07C
:1038000020002749087035E0264A211D022303FBCA
:103810000121481C1AA1FCF721FD2348007800F083
:10382000800028B12048007840F020001E49087030
:1038300020E01E4A211D022303FB0121481C10A188
:10384000FCF70CFD1A48007840F020001849087079
:1038500010E0184A211D022303FB0121481C08A186
:10386000FCF7FCFC1448007840F020001249087076
:1038700000E000BF00BF70BDE01B0020041B002063
:103880002057726974652052656769737465722088
:103890005375636365737366756C6C79210D0A00EB
:1038A000B10000203C1A0020B0000020D41C0020F1
:1038B000880700200C1C002080070020490050EAE7
:1038C000C12018BF04204A0D18BF40F0010040F28B
:1038D000FF72B2EB515F08BF40F00200012808BF41
:1038E0000520704730380A2801D201207047002097
:1038F0007047014600BF704730B5044613E01068BA
:103900000578206805701068401C10602068401C15
:1039100020601888401E1880A088401EA0808D421C
:1039200001D1022030BDA088002802DD18880028BF
:10393000E5DC188808B90020F4E70BE0106805788A
:103940001888401E18801068401C10608D4201D1FC
:103950000320E7E718880028F0DC0120E2E7016097
:1039600082807047F0B50B46144619461E19751E25
:103970000BE04E780F7806EB0726B2B28618B0B28D
:10398000904201DA461CB0B2891CA942F1D3A94287
:103990000AD10E78002707EB0626B2B28618B0B21D
:1039A000904201DA461CB0B2F0BD00000148006848
:1039B000704700002C000020014691F820000628E6
:1039C00021D11248007800F00100E0B1088A104AC5
:1039D0001268528A90420CDD088A0D4A1268528A97
:1039E000801A08820A4A48681268528A104448605D
:1039F00005E00A8A486810444860002008820120D7
:103A000081F8200070470020FCE7000088000020BB
:103A10008C00002010B56FF00400FFF7B1FC0A48DD
:103A200000680A49B0FBF1F00949087008460078BF
:103A300000EB4001C1EBC0104FF6FF7101EAC0007E
:103A40000449088010BD00001400002000127A0014
:103A5000480000204A0000200146114A12884A43CB
:103A60004FF0E0235A6100229A611A46126942F02F
:103A700001021A6100BF4FF0E022106900F001025C
:103A80001AB100F48032002AF5D04FF0E02212691A
:103A900022F001024FF0E0231A6100229A61704780
:103AA0004A0000200146114A12784A434FF0E023B1
:103AB0005A6100229A611A46126942F001021A61A3
:103AC00000BF4FF0E022106900F001021AB100F4CB
:103AD0008032002AF5D04FF0E022126922F0010274
:103AE0004FF0E0231A6100229A61704748000020DD
:103AF00070B504460D46208D10B1612814D103E045
:103B000000BF6120208500BF20212846FCF7EBFC88
:103B1000461C3246074904F1280000F0EBFF08B9C3
:103B2000002070BD00BF00BF00BF00202085022024
:103B3000F7E70000553B000800BF054A128802F075
:103B40004002002AF9D0C2B2014B1B1D1A807047F7
:103B50000038014070B504462546284600F094FC24
:103B60000646334604A240F6CA7104480068FCF7D2
:103B70008BFB80B270BD0000253575007C000020F5
:103B800070B504462546B5F8AC00064931F810304A
:103B900005A240F6CA7106480068FCF775FB80B2C2
:103BA00070BD0000A81900202535750A000000002E
:103BB0007C00002070B505462C469C2000590D491C
:103BC0000968498A884205DD0A480068408AC4F8C5
:103BD000A00003E09C200059C4F8A00098340648D7
:103BE000A26821680068FCF733FD2089983C80B208
:103BF00070BD00008C0000207C0000202DE9F04FFB
:103C00008BB005460A950A9DB5F8AC0000EB800024
:103C1000234901EBC004E08800F0C0FB0646608841
:103C200000F0BCFBC7B2608800F0B8FB4FEA202868
:103C3000208800F0B3FB00F0FF09208800F0AEFB05
:103C40004FEA202AA08800F0A9FB8346607E00F09E
:103C5000100008B1212200E02022208A08B12A2386
:103C600000E02023A07EE17ECDE90832CDE90610F8
:103C7000607E00F00F000B4951F820005B460A4AB5
:103C800040F6CA71CDE900A9CDE90287CDE904600B
:103C900006480068FCF7F8FA80B20BB0BDE8F08F78
:103CA00068180020D00000209C9A00087C000020AA
:103CB0002DE9FE4F04460A211020FEF7D3FA0546EF
:103CC00004F0ECF90290029804F078F807464FF0FF
:103CD00066321E4B03F07EFE054603F035FC029073
:103CE000029804F06BF81A4A1A4BCDE9000103F070
:103CF0006FFF0746184A194B03F000FD05460022E6
:103D0000174B03F053FC824603F01EFC029015494A
:103D1000029804F0D7F9054604F0A0F91FFA80F9DB
:103D20000A2099FBF0F085B202222146284600F0D5
:103D3000D1FE2E20A0700A2099FBF0F100FB11901B
:103D40003030E07000202071BDE8FE8F66664A3F8B
:103D5000E17A14AE47E1F63F22FDF675E09C713F33
:103D6000000039400000204110B50446FFF708F874
:103D70002D202071E0712020A0723A206073002075
:103D80002074114988880422214600F0A3FE0E49C0
:103D900088790222611D00F09DFE0B49C87902223C
:103DA00004F1080100F096FE07490878022204F1A8
:103DB0000B0100F08FFE04494878022204F10E0145
:103DC00000F088FE10BD00009007002010B50446EA
:103DD000204600F009F894F89600012802D1204608
:103DE00000F09AF910BD000070B586B00446A088B6
:103DF00048B1B0F5827F0BD0B0F5837F26D0B0F507
:103E0000A57F7BD12CE100BF4FF48270A08000BF62
:103E10002021201D00F0DEFE10B9002006B070BD8C
:103E200000BF04229D4904F15000FCF7C6FB40B1DD
:103E300000BF10209A49087000BF0020A080012018
:103E4000ECE700BF4FF48370A08000BF2021201D4D
:103E500000F0C0FE08B90020E0E700BF94F8500071
:103E60002F2808D000BF10208D49087000BF002007
:103E7000A0800120D2E75120005D202803D05120EE
:103E8000005D3F287DD15120005D3F2853D1562051
:103E9000005D31284FD18348006808B9012000E057
:103EA00000208049086080A18248FCF726FB054677
:103EB000002D22D080A12846FCF71FFB054679483B
:103EC0000068E0B106227EA1E81DFCF70EFC02228C
:103ED0007DA105F11800FCF708FC7CA12846FCF741
:103EE0000CFB05467B480068FCF748FB064632465B
:103EF000784801682846FCF7F8FB77E0C8E006221E
:103F000075A1E81DFCF7F1FB022275A105F118006F
:103F1000FCF7EBFB6DA12846FCF7EFFA054671486C
:103F20000068FCF72BFB064632466E4801682846BF
:103F3000FCF7DBFB5AE05120005D3F2856D15620AC
:103F4000005D322852D15748001D006808B9012091
:103F500000E000205349091D086063A15548FCF7A3
:103F6000CCFA0546002D41D053A12846FCF7C5FAEE
:103F700005464C48001D0068E8B1062250A1E81D26
:103F800000E057E0FCF7B1FB02224FA105F1180059
:103F9000FCF7ABFB4DA12846FCF7AFFA05464D48B0
:103FA0000068FCF7EBFA064632464A4801682846A4
:103FB000FCF79BFB1AE006224EA1E81DFCF795FBDF
:103FC000022247A105F11800FCF78FFB3FA128460C
:103FD000FCF793FA054649480068FCF7CFFA064615
:103FE0003246464801682846FCF77FFB44A1314829
:103FF000FCF783FA05463DB101A8FFF759FE281FDB
:10400000042201A9FCF771FB3EA12846FCF775FAD2
:10401000054645B101A8FFF7A7FE102201A905F149
:104020002100FCF762FB1422394904F18200FCF7FD
:104030005CFB0CE0201D00F056FD401E04F1500119
:1040400000220A54142204F18200FCF74EFB0120E6
:1040500084F896001BE000BF4FF4A570A08000BF5D
:104060000A21201D00F0B6FD08B90020D6E600BFE9
:104070000822284904F15000FCF79FFA38B9201DA6
:1040800000F031FD801E04F1500100220A54E2E7E5
:1040900000BF0020A0800220C0E60000D7960008E4
:1040A00088000020800121424C454430D7B4CCAC7C
:1040B0000000000001010020636F6C6F723A230062
:1040C0003542354235420000C3F000006874747018
:1040D0003A000000BC00002046463030303000007E
:1040E000C1C10000B40000204C454431D7B4CCAC71
:1040F000000000003030464630300000B80000209C
:10410000A1E60000525443CAB1BCE43A00000000EA
:104110001C9700083297000870B50446B4F84C00AC
:10412000E6283AD005DC48B1E1281DD0E32868D163
:1041300027E0EB284ED0EE2863D157E004F1980138
:1041400004F1820000F0BAF910BB04F19801304884
:1041500000F0B4F92E4904F18200FCF7E0F900BF49
:10416000E120A4F84C0000BF2A49204600F008FED8
:1041700008B9002070BD00BF00BFE320A4F84C00C8
:1041800000BF204600F0CCFD08B90020F2E734E083
:1041900000BFE620A4F84C0000BF1F49204600F0F5
:1041A000EFFD08B90020E5E700BF2E2104F18200F1
:1041B000FCF799F90546A5B1062218492846FCF7EF
:1041C000FCF970B90020A4F84E0000BFEB20A4F861
:1041D0004C0000BF204600F025F808B90020C9E7D0
:1041E0000BE000BFEE20A4F84C0000BF204600F01A
:1041F00097FD08B90020BDE700BF102008490870EE
:1042000000BF00BF0020A4F84C000220B2E700006D
:10421000289700088F9700083B970008E09800084F
:10422000880000202DE9F0410446B4F84E0030B17A
:1042300090282BD0922836D0B1287DD18CE09FE0F9
:10424000D4F898000078252846D1D4F89800407812
:10425000212841D1D4F89800C01CC4F8A4009C20A7
:104260000059C01EC4F8A800D4F8A40010F8010C2E
:104270003A2813D1D4F8A410481C04F1980100F096
:104280001DF900BF9020A4F84E0000BF204600F0AA
:1042900047FD10B90020BDE8F08112E000BF922078
:1042A000A4F84E0000BFD4F8A40000F0CFF80746F1
:1042B000D4F8A46031462046B84708B90020EAE7A0
:1042C00000BF204600F0ECFB9834E06820602169D4
:1042D000983C9C20015153E09C2000592E490968CC
:1042E000498A884205DD2C480068408AC4F8A0004D
:1042F00003E09C200059C4F8A000D4F8980000788E
:10430000252807D1D4F89810481C2521FCF7EBF894
:10431000054605E02521D4F89800FCF7E4F80546A9
:10432000ADB1D4F89800A84211D054F8980F281ACB
:10433000A060A068983C00E028E017490968498A15
:10434000884204DB14480068408AC4F8A00000BF1B
:10435000B120A4F84E0000BF204600F00BFE08B9C3
:10436000002098E700BF54F8980FA168084444F86B
:1043700098099C200059D4F8A010411A9C200151A2
:104380009C20005900283FF75BAF00BF00BF002012
:10439000A4F84E0002207EE78C00002001460802AF
:1043A00040EA212080B2704710B52648006800F12D
:1043B0001C042548007800F01000002840D1224855
:1043C000007800F0200000283AD11F48007800F063
:1043D0008000002834D11C48007800F04000B0B1C3
:1043E000312204F15001201D00F0C6FB312204F1FE
:1043F000500104F1280000F0BFFB0020A4F84C009D
:1044000084F8960020702046FFF7E0FC18E0A4B185
:104410000D48007800F0080058B12078401C20704A
:104420002078142803DB20200749087001E00020D1
:1044300020702046FFF7CAFC02E0202002490870E5
:1044400010BD00008C0000208800002070B50546DB
:104450000B4C0FE021680868FCF790F806462168CD
:10446000324608682946FCF7A8F810B92068406869
:1044700070BD241D20680028ECD10248F8E7000038
:10448000C0000020C34A000870B506460025094C4C
:104490000BE03046616800F037F818B9064830F88C
:1044A000150070BD681C85B22468002CF1D1002075
:1044B000F7E70000AC960008CC1B00202DE9F04186
:1044C00007460D4600260E4C15E03846616800F0A0
:1044D0001BF868B9A0682860E0686860094830F88F
:1044E0001600401C074921F816000120BDE8F081A4
:1044F000701C86B22468002CE7D10020F6E700008B
:10450000AC960008CC1B002010B502460B460021DB
:1045100000BF585C28B1505C0D2802D0505C0A28BE
:1045200001D1002010BD505C5C5CA04201D0012094
:10453000F8E7481CC1B2ECE786B0002400BF4FF09A
:10454000FF09CA46FFF766FAFEF7F1FAFEF7CEFA60
:10455000FDF7E0F909E0FA480068C043F949C1F8FD
:1045600080014FF4FA70FFF777FAFDF7B8F90028E9
:10457000F1D140F271210420FEF762F90020FEF72C
:104580008BF94FF4E13001F01FF8FDF780FAEE48A7
:1045900000F00EFD01F0E6FC00BFEB48113880781A
:1045A000E9491139497840EA01200102E648113809
:1045B0008078E54A113A527840EA022041EA202008
:1045C00080B2ADF81400E04811380179C07841EAB2
:1045D00000200102DC4811380279C07842EA00204C
:1045E00041EA202080B2ADF8160000BF00BFBDF840
:1045F0001400D6490880BDF81600488000BF00BFEF
:10460000D1481138807AD0491139497A40EA0120DD
:104610000102CD481138807ACB4A113A527A40EAE9
:10462000022041EA202080B2ADF81400C6481138BB
:10463000017BC07A41EA00200102C3481138027BA5
:10464000C07A42EA002041EA202080B2ADF816008C
:1046500000BF00BFBDF81400BD490880BDF81600BA
:10466000488000BF00BFB8481138807BB649113977
:10467000497B40EA01200102B3481138807BB24AED
:10468000113A527B40EA022041EA202080B2ADF884
:104690001400AD481138017CC07B41EA00200102C2
:1046A000A9481138027CC07B42EA002041EA202060
:1046B00080B2ADF8160000BF00BFBDF81400A549D8
:1046C0000880BDF81600488000BF9F481138007F61
:1046D00030B1012811D0022812D0032836D112E0BF
:1046E00099491139097E0902974A113A128B41EA18
:1046F000222188B201F096FC29E000F081FC26E03E
:1047000001F072F823E000F0AFFF8F491331081F6A
:10471000FDF7ECF98C491139486A03F04FFB054667
:104720000E4689491139086A03F048FB07463A46A4
:104730000B4689A19048CDE90056FBF78FFD8F48C5
:10474000007840F020008D49087000E000BF00BFF5
:1047500073E1FEF771F801F095FC601C84B2B4F5CA
:104760007A7F0CDD00247648001D0068C04375493F
:10477000C1F8840174491331081FFDF7B7F9724875
:104780001138007F30B101284ED002287ED0032896
:104790007DD117E17A480078814515D078480078B6
:1047A00000F0400068B17748FBF7E8FEC5B2294643
:1047B0007448FEF705FA7248007820F0400070490E
:1047C00008706F4890F800905F481138407F0128CA
:1047D00029D15D481138008D5B491139C98B884258
:1047E00021DB0020584911390885486A03F0E6FAB0
:1047F00005460E4654491139086A03F0DFFA8DE880
:1048000063005148113802785FA15E48FBF726FD2E
:104810005B48007800F0800028B15948007840F0EB
:1048200020005749087007E162480078824515D09A
:104830006048007800F0400068B15F48FBF79EFEDA
:10484000C5B229465C48FEF7BBF95A48007820F00B
:10485000400058490870574890F800A03A4811386D
:10486000407F01282CD138481138008D3649113944
:10487000C98B884224DB0020334911390885486AF6
:1048800003F09CFA05460E462F4901E019E0D2E0FC
:104890001139086A03F092FA8DE863002A4811384A
:1048A000027839A14448FBF7D9FC4248007800F06F
:1048B000800028B13F48007840F020003D49087052
:1048C000BAE03E48007800F0400068B13C48FBF791
:1048D00055FEC5B229463A48FEF772F937480078C6
:1048E00020F040003549087017481138407F0128F2
:1048F00024D115481138008D13491139C98B8842CC
:104900001CDB0020104911390885486A03F056FA6B
:1049100005460E460C491139086A03F04FFA8DE836
:10492000630009481138027817A12548FBF796FC67
:104930002248007840F02000204908707CE0000008
:104940008001214200002142F11B0020680000206C
:104950006C0000207000002068756D6964203D20A7
:10496000252E31662C2074656D706572203D2025E2
:104970002E31660D0A0000000C1C0020800700206C
:10498000B1000020041B0020485453656E736F7201
:1049900025642068756D6964203D20252E31662CC4
:1049A0002074656D706572203D20252E31660D0ADC
:1049B00000000000B00000203C1A00208807002002
:1049C000D41C00201D48007800F0400068B11C484D
:1049D000FBF7D4FDC5B229461948FEF7F1F8174890
:1049E000007820F04000154908701648407F0128E3
:1049F00020D11448008D1349C98B88421ADB00204E
:104A000010490885486A03F0D9F905460E460D4954
:104A1000086A03F0D3F98DE863000A480278AFF220
:104A200098010748FBF71AFC0448007840F0200082
:104A30000249087000E000BF00BF8AE6800700203E
:104A40000C1C0020E01B002070B504460D46208D94
:104A500010B1C3281CD107E00020A4F8AC0012E07C
:104A600000BFC320208500BF22460C4904F1280066
:104A700000F040F808B9002070BD00BFB4F8AC00E9
:104A8000401CA4F8AC00B4F8AC001A28E8D300BF6E
:104A900000BF002020850220EEE70000813B0008D7
:104AA00070B5044654F8A40F0A21FBF71CFD451C01
:104AB0002188691A89B26068401A606044F8A45974
:104AC00070BD0246108D00B900BF00BF00201085E8
:104AD0000220704710B50346002001E0441CE0B2FC
:104AE0009042FBDB10BD01468A8B088B101A80B206
:104AF000704700002DE9F04104460D4616466088D7
:104B000010B1EE282FD11BE02DB900BF002060802E
:104B10000120BDE8F0813046A84720821448006893
:104B20006060002084F8200000BF1248007800F088
:104B3000040008B13046A84700BFEE20608000BFE7
:104B40002046FEF739FF0746204600F0C1F807402F
:104B50000FB90020DDE700BF208A0028E5DC002037
:104B600084F8200000BF00BF002060800220D0E752
:104B70007C0000208800002070B504460E461546D3
:104B8000002084F820006082E660E561AAB2314628
:104B900004F11400FEF7E3FE00202080608070BD69
:104BA0000146488A002801DD0120704791F8200065
:104BB000022804D1032081F820000020F5E70448F2
:104BC000007800F0020008B10120EEE70020ECE7D9
:104BD0008800002070B504460D46608820B1A0F220
:104BE0001B10002836D10EE0A08B82B204F1140015
:104BF000E168FEF7B4FE00BF608AA0B900BF40F2D2
:104C00001B10608000BF2046FFF7CAFF08B90020D4
:104C100070BD00BF022084F8200011480068A06029
:104C200010480088608204F1120304F1080229464A
:104C3000981CFEF761FE00F002000028DCD0204640
:104C4000FFF751FF28B9002084F8200000BF6080E2
:104C5000DEE700BF00BF002060800220D8E7000030
:104C60007C000020840000202DE9F04104460E461F
:104C70001546608810B1CF2824D110E02DB900BFAF
:104C8000002060800120BDE8F08166602582002060
:104C900084F820000FE000BFCF20608000BF2046D6
:104CA000FEF78AFE0746204600F012F807400FB9CB
:104CB0000020E8E700BF208A0028ECDC002084F810
:104CC000200000BF00BF002060800220DBE7000062
:104CD00010B5044694F82000062804D10E48007848
:104CE00000F00400A8B1208A0C490968498A88426A
:104CF00006DD0A4A1268518A606802F05BFB03E035
:104D0000218A606802F056FB062084F8200001200A
:104D100010BD0020FCE70000880000208C0000206F
:104D200010B50446208D10B1642821D104E000BFE5
:104D300000BF6420208500BF2246104904F12800EE
:104D4000FFF7D8FE08B9002010BD00BF9C20005915
:104D5000D4F8A010411A9C20015154F8980FA16872
:104D6000084444F898099C2000590028E0DC00BF62
:104D700000BF002020850220E6E70000B53B0008C8
:104D80002DE9F04104460E46208DCB2865D007DC86
:104D900078B1C22811D0C62829D0C9287ED144E0D4
:104DA000CD2872D0CF287AD0D12879D0D328F5D188
:104DB000B1E000BFC220208500BF3046FBF7DEFB1C
:104DC00007463A46314604F12800FFF74DFF10B977
:104DD0000020BDE8F08100BF2E2104F18200FBF726
:104DE000C2FB05468DB900BFC620208500BF5448D0
:104DF000FBF7C4FB07463A46514904F12800FFF788
:104E000033FF08B90020E4E793E0052229464D4826
:104E1000FBF7D3FB28B1062229464B48FBF7CDFB15
:104E200088B900BFC920208500BF4848FBF7A6FB12
:104E300007463A46454904F12800FFF715FF08B92F
:104E40000020C6E775E0042229464148FBF7B5FB80
:104E500088B900BFCB20208500BF3E48FBF78EFB02
:104E600007463A463B4904F12800FFF7FDFE08B922
:104E70000020AEE75DE0042229463748FBF79DFBA2
:104E8000A8B900BFCD20208500BF3448FBF776FBD2
:104E900007463A46314904F1280002E04AE010E0B2
:104EA00027E0FFF7E1FE08B9002092E741E0042285
:104EB00029462B48FBF781FB88B900BFCF2020850E
:104EC00000BF2848FBF75AFB07463A46254904F13C
:104ED0002800FFF7C9FE08B900207AE729E004227C
:104EE00029462148FBF769FB88B900BFD1202085FE
:104EF00000BF1E48FBF742FB07463A461B4904F138
:104F00002800FFF7B1FE08B9002062E711E000BFFA
:104F1000D320208500BF1648FBF730FB07463A46F2
:104F2000134904F12800FFF79FFE08B9002050E75D
:104F300000BF00BF00BF00202085022049E700001D
:104F4000AF980008DA980008E09800080798000871
:104F5000EC98000823980008F19800085A98000877
:104F6000F698000876980008FB98000892980008C8
:104F7000EA97000810B50446208D10B1712811D1B0
:104F800003E000BF7120208500BF04F12800D4F8A1
:104F9000A020D4F89810FFF767FE08B9002010BDD4
:104FA00000BF00BF00BF002020850220F7E70000FF
:104FB00070B50546002404E0285D05490855601CCD
:104FC000C4B2062CF8DB2846FCF708FE70BD0000D2
:104FD0007400002010B5034940F2EE50FCF7D8FEF3
:104FE00080B210BD6408002010B503490348008852
:104FF000FCF72EFF10BD0000640800208400002094
:1050000008B500BF174880791649497940EA012060
:10501000010214488079134A527940EA022041EA99
:10502000202080B2ADF800000E48017AC07941EA34
:10503000002001020B48027AC07942EA002041EACE
:10504000202080B2ADF8020000BF0648807E00023A
:10505000044A528B40EA222081B2684600F0FAFEF0
:1050600008BD0000E01B002010B592B05348006856
:1050700000F11C045248007800F0200050B151A00B
:1050800000F0F0FF5648007820F080005449087086
:10509000FFF7B6FF4A48007800F0100080B151A039
:1050A00000F0E0FF4E48007820F080004C49087086
:1050B0002078032802D00320207001E0FFF7A0FF32
:1050C0003F48007800F0800010B14CA000F0CAFF0B
:1050D0003B48007800F0400000281AD04048007893
:1050E00040F080003E4908704BA000F0BBFF042058
:1050F00020704F4802784FA16846FBF7AFF8C4F81C
:1051000004D06068FBF73AFAA060D4E9010102F02C
:1051100051F92B48007800F0010038B153A000F09D
:10512000A1FF2078042801D10520207024480078B0
:1051300000F00200D8B12078052818D1284800785E
:1051400000F0400098B94E480088C72804DD0020D0
:105150004C49096881F8C7004A4801684A48FBF78A
:10516000DEF91F48007840F040001D4908701448DF
:10517000007800F00800B0B144A000F073FF1848B8
:10518000007800F0200070B13F486060FBF7F6F94E
:10519000A0601348007820F0200011490870D4E97D
:1051A000010102F007F90648007800F0040018B188
:1051B000D4E9010102F0FEF812B010BD8C0000200D
:1051C000880000207463705F636C69656E7420757D
:1051D00069705F61626F72746564210D0A0000007E
:1051E000B00000207463705F636C69656E74207535
:1051F00069705F636C6F7365640D0A007463705F40
:10520000636C69656E74207569705F74696D65643F
:105210006F7574210D0A00007463705F636C6965BB
:105220006E7420636F6E6E6563746564210D0A0091
:10523000E01B0020485453656E736F722564285438
:10524000435020436C69656E742920776173206335
:105250006F6E6E65637465642073756363657373E5
:1052600066756C6C79210D0A000000007463705F34
:10527000636C69656E742061636B6564210D0A005F
:10528000840000207C0000203C1A00207463705FC2
:10529000636C69656E74207569705F706F6C6C21EA
:1052A0000D0A000010B51348007E00021149098B59
:1052B00040EA212080B2104909688988884201D1DA
:1052C00000F01CF80C4800688088B0F5A04F01D1B0
:1052D000FFF76AF80748807E00020649498B40EADA
:1052E000212080B204490968C988884201D1FFF7AA
:1052F000BBFE10BDE01B00208C00002010B592B05A
:105300004E48006800F11C044D48007800F0200071
:1053100040B14CA000F0A6FE5148007820F080007B
:105320004F4908704648007800F0100040B14DA089
:1053300000F098FE4A48007820F080004849087044
:105340003F48007800F0800010B14CA000F08AFEC9
:105350003B48007800F0400000281AD04048007810
:1053600040F080003E4908704BA000F07BFE042016
:1053700020704F4802784FA16846FAF76FFFC4F8D3
:1053800004D06068FBF7FAF8A060D4E9010102F0EC
:1053900011F82B48007800F0010038B153A000F05C
:1053A00061FE2078042801D105202070244800786F
:1053B00000F00200D8B12078052818D128480078DC
:1053C00000F0400098B94E480088C72804DD00204E
:1053D0004C49096881F8C7004A4801684A48FBF708
:1053E0009EF81F48007840F040001D49087014489E
:1053F000007800F00800B0B144A000F033FE184877
:10540000007800F0200070B13F486060FBF7B6F80C
:10541000A0601348007820F0200011490870D4E9FA
:10542000010101F0C7FF0648007800F0040018B140
:10543000D4E9010101F0BEFF12B010BD8C000020C4
:10544000880000207463705F7365727665722075E2
:1054500069705F61626F72746564210D0A000000FB
:10546000B10000207463705F736572766572207599
:1054700069705F636C6F7365640D0A007463705FBD
:10548000736572766572207569705F74696D6564A5
:105490006F7574210D0A00007463705F7365727616
:1054A000657220636F6E6E6563746564210D0A001A
:1054B000E01B0020485453656E736F7225642854B6
:1054C000435020536572766572292077617320639B
:1054D0006F6E6E6563746564207375636365737363
:1054E00066756C6C79210D0A000000007463705FB2
:1054F0007365727665722061636B6564210D0A00C5
:10550000840000207C000020041B00207463705F76
:10551000736572766572207569705F706F6C6C214F
:105520000D0A000070B504460D46208D10B1AB2861
:1055300027D112E00020A4F8AC001DE0B4F8AC00C4
:1055400000EB8000114901EBC000407E00F00F002D
:1055500068B100BFAB20208500BF22460C4904F192
:105560002800FFF7C7FA08B9002070BD00BFB4F8E3
:10557000AC00401CA4F8AC00B4F8AC000228DDDBA1
:1055800000BF00BF002020850220EEE76818002041
:10559000FD3B000810B50446FEF708FA2168401AE2
:1055A0006168884201DB012010BD0020FCE7D0E9E2
:1055B000001211440160704770B504460D466560E5
:1055C000FEF7F4F9206070BD10B586B004460121E5
:1055D00044F20400FDF752FB4FF40070ADF81400E4
:1055E00003208DF8160018208DF8170005A91C4817
:1055F000FCF78EFD4FF48060ADF8140004208DF8A8
:10560000170005A91648FCF783FD25208DF800003A
:1056100003208DF801008DF8020001208DF80300B1
:105620006846FDF78BFA01940020ADF80800ADF84C
:105630000A00ADF80C00ADF810000C20ADF80E001B
:1056400001A90848FEF744F8012240F22551054817
:10565000FEF718F801210348FDF7DEFF06B010BD84
:10566000000801400038014008B500BF1B488079A0
:105670001A49497940EA0120010218488079174AFD
:10568000527940EA022041EA202080B2ADF80000C1
:105690001248017AC07941EA002001020F48027ADB
:1056A000C07942EA002041EA202080B2ADF8020031
:1056B00000BF0B48006818B10020094909688880BC
:1056C0000648807E0002054A528B40EA222081B2C1
:1056D000684601F08DFE0249086008BDE01B00200D
:1056E0008407002010B52248006800F10C0421480E
:1056F000007800F00200C0B11F48007800F04000C0
:1057000098B91E480088C72804DD00201C49096894
:1057100081F8C7001A4801681A48FAF700FF1648CE
:10572000007840F04000144908701248007800F0FA
:105730000800D8B114A000F095FC0F48007800F0E4
:10574000200098B10F486060FAF718FFA0600A487F
:10575000007820F0200008490870D4E9010101F028
:1057600029FE0748A168006801F024FE10BD000072
:105770009400002088000020800700208400002082
:105780007C0000200C1C00207564705F636C6965F0
:105790006E74207569705F706F6C6C210D0A00006B
:1057A00010B50F48007E00020D49098B40EA212008
:1057B00080B20C4909688988884201D100F060F8FC
:1057C0000748807E00020649498B40EA212080B2CA
:1057D00004490968C988884201D1FFF783FF10BDD9
:1057E000E01B00209400002008B500BF224880790B
:1057F0002149497940EA012001021F4880791E4A67
:10580000527940EA022041EA202080B2ADF800003F
:105810001948017AC07941EA002001021648027A4B
:10582000C07942EA002041EA202080B2ADF80200AF
:1058300000BF1248006818B100201049096888802C
:105840000D48807E00020C4A528B40EA222081B231
:10585000684601F0CDFD094908600846006848B176
:105860000548007E00020449098B40EA21200349D3
:105870000968888008BD0000E01B00208C0700201C
:1058800010B52248006800F10C042148007800F0AF
:105890000200C0B11F48007800F0400098B91E48CF
:1058A0000088C72804DD00201C49096881F8C7006A
:1058B0001A4801681A48FAF732FE1648007840F094
:1058C0004000144908701248007800F00800D8B170
:1058D00014A000F0C7FB0F48007800F0200098B13A
:1058E0000F486060FAF74AFEA0600A48007820F08E
:1058F000200008490870D4E9010101F05BFD074868
:10590000A168006801F056FD10BD00009400002061
:105910008800002088070020840000207C000020F0
:10592000D41C00207564705F736572766572207593
:1059300069705F706F6C6C210D0A0000C2780A44B8
:10594000194BDA70827802EB21229A7042785A70F1
:1059500002781A701A469278B2EB212F0ADA1A46A8
:105960005278521C5A701A4652781AB91A4612784E
:10597000521C1A700C4AD278CBB29A4212DA0A4AF6
:105980009278521C084B9A701A46927852B91A466D
:105990005278521C5A701A4652781AB91A4612781E
:1059A000521C1A7070470000A000002010B5044679
:1059B00021460D4800680830FFF7C0FF0B4800780B
:1059C0000949096808720948417807480068417226
:1059D000064881780448006881720448C17802480A
:1059E0000068C17210BD00008C000020A0000020E3
:1059F00010B5354800882A2803D200203249088093
:105A000010BD0020304908803048808AB0F5807F82
:105A100003D0B0F5007F54D141E02C48C08C2C4914
:105A2000098888423AD12948008D29494988884205
:105A300034D126491631881D00F07AF94FF40070F0
:105A4000224988820846D1F816200262498B818457
:105A500020490A68C0F81620898841831D490A68D0
:105A6000C0F806208988418101460A6A0260898C53
:105A70008180808B1549C8840846C18B01851448F4
:105A8000008812498883124841881048C1834FF426
:105A9000C1600E4988812A200B49088011E00B481B
:105AA000C08C0B49098888420AD10848008D0849F2
:105AB0004988884204D105491631881D00F038F91B
:105AC00000BF00BF00BF9BE78400002064080020E7
:105AD000680000207400002010B5134800880E38BC
